{
  "contractName": "Airbnb",
  "abi": [
    {
      "inputs": [],
      "stateMutability": "nonpayable",
      "type": "constructor"
    },
    {
      "anonymous": false,
      "inputs": [
        {
          "indexed": false,
          "internalType": "uint256",
          "name": "id",
          "type": "uint256"
        },
        {
          "indexed": false,
          "internalType": "address",
          "name": "guest",
          "type": "address"
        },
        {
          "indexed": false,
          "internalType": "uint256",
          "name": "numberOfDays",
          "type": "uint256"
        },
        {
          "indexed": false,
          "internalType": "uint256",
          "name": "price",
          "type": "uint256"
        }
      ],
      "name": "PropertyBookedEvent",
      "type": "event"
    },
    {
      "anonymous": false,
      "inputs": [
        {
          "indexed": false,
          "internalType": "string",
          "name": "name",
          "type": "string"
        },
        {
          "indexed": false,
          "internalType": "string",
          "name": "propertyAddress",
          "type": "string"
        },
        {
          "indexed": false,
          "internalType": "string",
          "name": "description",
          "type": "string"
        },
        {
          "indexed": false,
          "internalType": "string",
          "name": "imgUrl",
          "type": "string"
        },
        {
          "indexed": false,
          "internalType": "uint256",
          "name": "pricePerDay",
          "type": "uint256"
        },
        {
          "indexed": false,
          "internalType": "uint256",
          "name": "id",
          "type": "uint256"
        }
      ],
      "name": "PropertyListedEvent",
      "type": "event"
    },
    {
      "inputs": [],
      "name": "counter",
      "outputs": [
        {
          "internalType": "uint256",
          "name": "",
          "type": "uint256"
        }
      ],
      "stateMutability": "view",
      "type": "function",
      "constant": true
    },
    {
      "inputs": [],
      "name": "owner",
      "outputs": [
        {
          "internalType": "address",
          "name": "",
          "type": "address"
        }
      ],
      "stateMutability": "view",
      "type": "function",
      "constant": true
    },
    {
      "inputs": [
        {
          "internalType": "uint256",
          "name": "",
          "type": "uint256"
        }
      ],
      "name": "properties",
      "outputs": [
        {
          "internalType": "address",
          "name": "owner",
          "type": "address"
        },
        {
          "internalType": "address",
          "name": "guest",
          "type": "address"
        },
        {
          "internalType": "string",
          "name": "name",
          "type": "string"
        },
        {
          "internalType": "string",
          "name": "propertyAddress",
          "type": "string"
        },
        {
          "internalType": "string",
          "name": "description",
          "type": "string"
        },
        {
          "internalType": "string",
          "name": "imgUrl",
          "type": "string"
        },
        {
          "internalType": "uint256",
          "name": "bookingStartsAt",
          "type": "uint256"
        },
        {
          "internalType": "uint256",
          "name": "bookingEndsAt",
          "type": "uint256"
        },
        {
          "internalType": "uint256",
          "name": "pricePerDay",
          "type": "uint256"
        },
        {
          "internalType": "uint256",
          "name": "id",
          "type": "uint256"
        },
        {
          "internalType": "bool",
          "name": "isBooked",
          "type": "bool"
        }
      ],
      "stateMutability": "view",
      "type": "function",
      "constant": true
    },
    {
      "inputs": [
        {
          "internalType": "uint256",
          "name": "",
          "type": "uint256"
        }
      ],
      "name": "rentalIds",
      "outputs": [
        {
          "internalType": "uint256",
          "name": "",
          "type": "uint256"
        }
      ],
      "stateMutability": "view",
      "type": "function",
      "constant": true
    },
    {
      "inputs": [
        {
          "internalType": "string",
          "name": "name",
          "type": "string"
        },
        {
          "internalType": "string",
          "name": "propertyAddress",
          "type": "string"
        },
        {
          "internalType": "string",
          "name": "description",
          "type": "string"
        },
        {
          "internalType": "string",
          "name": "imgUrl",
          "type": "string"
        },
        {
          "internalType": "uint256",
          "name": "pricePerDay",
          "type": "uint256"
        }
      ],
      "name": "listProperty",
      "outputs": [],
      "stateMutability": "nonpayable",
      "type": "function"
    },
    {
      "inputs": [
        {
          "internalType": "uint256",
          "name": "id",
          "type": "uint256"
        },
        {
          "internalType": "uint256",
          "name": "startDate",
          "type": "uint256"
        },
        {
          "internalType": "uint256",
          "name": "endDate",
          "type": "uint256"
        }
      ],
      "name": "getDuePrice",
      "outputs": [
        {
          "internalType": "uint256",
          "name": "",
          "type": "uint256"
        }
      ],
      "stateMutability": "view",
      "type": "function",
      "constant": true
    },
    {
      "inputs": [
        {
          "internalType": "uint256",
          "name": "propertyId",
          "type": "uint256"
        },
        {
          "internalType": "uint256",
          "name": "startDate",
          "type": "uint256"
        },
        {
          "internalType": "uint256",
          "name": "endDate",
          "type": "uint256"
        }
      ],
      "name": "bookProperty",
      "outputs": [],
      "stateMutability": "payable",
      "type": "function",
      "payable": true
    }
  ],
  "bytecode": "0x608060405234801561001057600080fd5b506000600181905550336000806101000a81548173ffffffffffffffffffffffffffffffffffffffff021916908373ffffffffffffffffffffffffffffffffffffffff160217905550611379806100686000396000f3fe6080604052600436106100705760003560e01c80636989a6491161004e5780636989a649146101065780638da5cb5b14610122578063ebfa74c91461014d578063f7b108081461018a57610070565b80632780842a1461007557806346e17d4a146100b257806361bc221a146100db575b600080fd5b34801561008157600080fd5b5061009c6004803603810190610097919061093a565b6101d1565b6040516100a9919061099c565b60405180910390f35b3480156100be57600080fd5b506100d960048036038101906100d49190610afd565b610223565b005b3480156100e757600080fd5b506100f06103de565b6040516100fd919061099c565b60405180910390f35b610120600480360381019061011b919061093a565b6103e4565b005b34801561012e57600080fd5b506101376105e1565b6040516101449190610c29565b60405180910390f35b34801561015957600080fd5b50610174600480360381019061016f9190610c44565b610605565b604051610181919061099c565b60405180910390f35b34801561019657600080fd5b506101b160048036038101906101ac9190610c44565b610629565b6040516101c89b9a99989796959493929190610d0b565b60405180910390f35b60008060036000868152602001908152602001600020905060006305265c0085856101fc9190610e01565b6102069190610e64565b90508160080154816102189190610e95565b925050509392505050565b600060036000600154815260200190815260200160002090508581600201908161024d91906110fb565b508481600301908161025f91906110fb565b508381600401908161027191906110fb565b508281600501908161028391906110fb565b508181600801819055506001548160090181905550600081600a0160006101000a81548160ff0219169083151502179055506000816006018190555060008160070181905550338160000160006101000a81548173ffffffffffffffffffffffffffffffffffffffff021916908373ffffffffffffffffffffffffffffffffffffffff16021790555060008160010160006101000a81548173ffffffffffffffffffffffffffffffffffffffff021916908373ffffffffffffffffffffffffffffffffffffffff160217905550600260015490806001815401808255809150506001900390600052602060002001600090919091909150557ffd4c11c8479504da167b6038cb455ff18006f27fbe31be2b2d65f0acdd88729386868686866001546040516103b6969594939291906111cd565b60405180910390a1600160008154809291906103d19061124a565b9190505550505050505050565b60015481565b60006305265c0083836103f79190610e01565b6104019190610e64565b90506003600085815260200190815260200160002060080154816104259190610e95565b341015610467576040517f08c379a000000000000000000000000000000000000000000000000000000000815260040161045e906112de565b60405180910390fd5b6003600085815260200190815260200160002060000160009054906101000a900473ffffffffffffffffffffffffffffffffffffffff1673ffffffffffffffffffffffffffffffffffffffff166108fc349081150290604051600060405180830381858888f193505050501580156104e3573d6000803e3d6000fd5b50600160036000868152602001908152602001600020600a0160006101000a81548160ff021916908315150217905550826003600086815260200190815260200160002060060181905550816003600086815260200190815260200160002060070181905550336003600086815260200190815260200160002060010160006101000a81548173ffffffffffffffffffffffffffffffffffffffff021916908373ffffffffffffffffffffffffffffffffffffffff1602179055507fd4b9cad7e4cd8ddab7b1472716b72454c8dae404ca7e5930058c5e9099dafdbf843383346040516105d394939291906112fe565b60405180910390a150505050565b60008054906101000a900473ffffffffffffffffffffffffffffffffffffffff1681565b6002818154811061061557600080fd5b906000526020600020016000915090505481565b60036020528060005260406000206000915090508060000160009054906101000a900473ffffffffffffffffffffffffffffffffffffffff16908060010160009054906101000a900473ffffffffffffffffffffffffffffffffffffffff169080600201805461069890610f1e565b80601f01602080910402602001604051908101604052809291908181526020018280546106c490610f1e565b80156107115780601f106106e657610100808354040283529160200191610711565b820191906000526020600020905b8154815290600101906020018083116106f457829003601f168201915b50505050509080600301805461072690610f1e565b80601f016020809104026020016040519081016040528092919081815260200182805461075290610f1e565b801561079f5780601f106107745761010080835404028352916020019161079f565b820191906000526020600020905b81548152906001019060200180831161078257829003601f168201915b5050505050908060040180546107b490610f1e565b80601f01602080910402602001604051908101604052809291908181526020018280546107e090610f1e565b801561082d5780601f106108025761010080835404028352916020019161082d565b820191906000526020600020905b81548152906001019060200180831161081057829003601f168201915b50505050509080600501805461084290610f1e565b80601f016020809104026020016040519081016040528092919081815260200182805461086e90610f1e565b80156108bb5780601f10610890576101008083540402835291602001916108bb565b820191906000526020600020905b81548152906001019060200180831161089e57829003601f168201915b50505050509080600601549080600701549080600801549080600901549080600a0160009054906101000a900460ff1690508b565b6000604051905090565b600080fd5b600080fd5b6000819050919050565b61091781610904565b811461092257600080fd5b50565b6000813590506109348161090e565b92915050565b600080600060608486031215610953576109526108fa565b5b600061096186828701610925565b935050602061097286828701610925565b925050604061098386828701610925565b9150509250925092565b61099681610904565b82525050565b60006020820190506109b1600083018461098d565b92915050565b600080fd5b600080fd5b6000601f19601f8301169050919050565b7f4e487b7100000000000000000000000000000000000000000000000000000000600052604160045260246000fd5b610a0a826109c1565b810181811067ffffffffffffffff82111715610a2957610a286109d2565b5b80604052505050565b6000610a3c6108f0565b9050610a488282610a01565b919050565b600067ffffffffffffffff821115610a6857610a676109d2565b5b610a71826109c1565b9050602081019050919050565b82818337600083830152505050565b6000610aa0610a9b84610a4d565b610a32565b905082815260208101848484011115610abc57610abb6109bc565b5b610ac7848285610a7e565b509392505050565b600082601f830112610ae457610ae36109b7565b5b8135610af4848260208601610a8d565b91505092915050565b600080600080600060a08688031215610b1957610b186108fa565b5b600086013567ffffffffffffffff811115610b3757610b366108ff565b5b610b4388828901610acf565b955050602086013567ffffffffffffffff811115610b6457610b636108ff565b5b610b7088828901610acf565b945050604086013567ffffffffffffffff811115610b9157610b906108ff565b5b610b9d88828901610acf565b935050606086013567ffffffffffffffff811115610bbe57610bbd6108ff565b5b610bca88828901610acf565b9250506080610bdb88828901610925565b9150509295509295909350565b600073ffffffffffffffffffffffffffffffffffffffff82169050919050565b6000610c1382610be8565b9050919050565b610c2381610c08565b82525050565b6000602082019050610c3e6000830184610c1a565b92915050565b600060208284031215610c5a57610c596108fa565b5b6000610c6884828501610925565b91505092915050565b600081519050919050565b600082825260208201905092915050565b60005b83811015610cab578082015181840152602081019050610c90565b60008484015250505050565b6000610cc282610c71565b610ccc8185610c7c565b9350610cdc818560208601610c8d565b610ce5816109c1565b840191505092915050565b60008115159050919050565b610d0581610cf0565b82525050565b600061016082019050610d21600083018e610c1a565b610d2e602083018d610c1a565b8181036040830152610d40818c610cb7565b90508181036060830152610d54818b610cb7565b90508181036080830152610d68818a610cb7565b905081810360a0830152610d7c8189610cb7565b9050610d8b60c083018861098d565b610d9860e083018761098d565b610da661010083018661098d565b610db461012083018561098d565b610dc2610140830184610cfc565b9c9b505050505050505050505050565b7f4e487b7100000000000000000000000000000000000000000000000000000000600052601160045260246000fd5b6000610e0c82610904565b9150610e1783610904565b9250828203905081811115610e2f57610e2e610dd2565b5b92915050565b7f4e487b7100000000000000000000000000000000000000000000000000000000600052601260045260246000fd5b6000610e6f82610904565b9150610e7a83610904565b925082610e8a57610e89610e35565b5b828204905092915050565b6000610ea082610904565b9150610eab83610904565b9250817fffffffffffffffffffffffffffffffffffffffffffffffffffffffffffffffff0483118215151615610ee457610ee3610dd2565b5b828202905092915050565b7f4e487b7100000000000000000000000000000000000000000000000000000000600052602260045260246000fd5b60006002820490506001821680610f3657607f821691505b602082108103610f4957610f48610eef565b5b50919050565b60008190508160005260206000209050919050565b60006020601f8301049050919050565b600082821b905092915050565b600060088302610fb17fffffffffffffffffffffffffffffffffffffffffffffffffffffffffffffffff82610f74565b610fbb8683610f74565b95508019841693508086168417925050509392505050565b6000819050919050565b6000610ff8610ff3610fee84610904565b610fd3565b610904565b9050919050565b6000819050919050565b61101283610fdd565b61102661101e82610fff565b848454610f81565b825550505050565b600090565b61103b61102e565b611046818484611009565b505050565b5b8181101561106a5761105f600082611033565b60018101905061104c565b5050565b601f8211156110af5761108081610f4f565b61108984610f64565b81016020851015611098578190505b6110ac6110a485610f64565b83018261104b565b50505b505050565b600082821c905092915050565b60006110d2600019846008026110b4565b1980831691505092915050565b60006110eb83836110c1565b9150826002028217905092915050565b61110482610c71565b67ffffffffffffffff81111561111d5761111c6109d2565b5b6111278254610f1e565b61113282828561106e565b600060209050601f8311600181146111655760008415611153578287015190505b61115d85826110df565b8655506111c5565b601f19841661117386610f4f565b60005b8281101561119b57848901518255600182019150602085019450602081019050611176565b868310156111b857848901516111b4601f8916826110c1565b8355505b6001600288020188555050505b505050505050565b600060c08201905081810360008301526111e78189610cb7565b905081810360208301526111fb8188610cb7565b9050818103604083015261120f8187610cb7565b905081810360608301526112238186610cb7565b9050611232608083018561098d565b61123f60a083018461098d565b979650505050505050565b600061125582610904565b91507fffffffffffffffffffffffffffffffffffffffffffffffffffffffffffffffff820361128757611286610dd2565b5b600182019050919050565b7f506c656173652073656e64206d6f726520455448000000000000000000000000600082015250565b60006112c8601483610c7c565b91506112d382611292565b602082019050919050565b600060208201905081810360008301526112f7816112bb565b9050919050565b6000608082019050611313600083018761098d565b6113206020830186610c1a565b61132d604083018561098d565b61133a606083018461098d565b9594505050505056fea2646970667358221220b521bbdaedd3ca24a49906046c9e2d59c76130d84d17eb92fa65dbfe344afe7064736f6c63430008100033",
  "immutableReferences": {},
  "source": "//SPDX-License-Identifier: MIT\r\npragma solidity ^0.8.16;\r\n\r\ncontract Airbnb{\r\n    address public owner;\r\n    uint256 public counter;\r\n    uint256[] public rentalIds;\r\n\r\n    constructor(){\r\n        counter=0;\r\n        owner=msg.sender;\r\n    }\r\n\r\n    struct PropertyInfo{\r\n        address owner;\r\n        address guest;\r\n        string name;\r\n        string propertyAddress;\r\n        string description;\r\n        string imgUrl;\r\n        uint256 bookingStartsAt;\r\n        uint256 bookingEndsAt;\r\n        uint256 pricePerDay;\r\n        uint id;\r\n        bool isBooked;\r\n    }\r\n    event PropertyListedEvent (\r\n        string name,\r\n        string propertyAddress,\r\n        string description,\r\n        string imgUrl,\r\n        uint256 pricePerDay,\r\n        uint256 id\r\n    );\r\n    event PropertyBookedEvent(\r\n        uint256 id,\r\n        address guest,\r\n        uint256 numberOfDays,\r\n        uint256 price\r\n    );\r\n\r\n    mapping(uint256=>PropertyInfo) public properties;\r\n\r\n    function listProperty(\r\n        string memory name,\r\n        string memory propertyAddress,\r\n        string memory description,\r\n        string memory imgUrl,\r\n        uint256 pricePerDay\r\n    ) public {\r\n        PropertyInfo storage newProperty=properties[counter];\r\n        newProperty.name=name;\r\n        newProperty.propertyAddress=propertyAddress;\r\n        newProperty.description=description;\r\n        newProperty.imgUrl=imgUrl;\r\n        newProperty.pricePerDay=pricePerDay;\r\n        newProperty.id=counter;\r\n        newProperty.isBooked=false;\r\n        newProperty.bookingStartsAt=0;\r\n        newProperty.bookingEndsAt=0;\r\n        newProperty.owner=msg.sender;\r\n        newProperty.guest=address(0);\r\n \r\n        rentalIds.push(counter);\r\n        emit PropertyListedEvent(name, propertyAddress, description, imgUrl, pricePerDay, counter);\r\n        counter++;\r\n    }  \r\n    function getDuePrice(\r\n        uint id,\r\n        uint256 startDate,\r\n        uint256 endDate\r\n    )public view returns(uint256){\r\n        PropertyInfo storage property = properties[id];\r\n        uint256 numberOfDays=(endDate-startDate)/86400000;\r\n        return numberOfDays*property.pricePerDay;\r\n    }\r\n\r\n    function bookProperty(\r\n        uint256 propertyId,\r\n        uint256 startDate,\r\n        uint256 endDate\r\n    ) public payable{\r\n        uint256 numberOfDays=(endDate-startDate)/86400000;\r\n\r\n        require(\r\n            msg.value >= numberOfDays*properties[propertyId].pricePerDay,\r\n            \"Please send more ETH\"\r\n        );\r\n        payable(properties[propertyId].owner).transfer(msg.value);\r\n        properties[propertyId].isBooked=true; \r\n        properties[propertyId].bookingStartsAt=startDate;\r\n        properties[propertyId].bookingEndsAt=endDate;\r\n        properties[propertyId].guest=msg.sender;\r\n\r\n        emit PropertyBookedEvent(\r\n            propertyId,\r\n            msg.sender,\r\n            numberOfDays,\r\n            msg.value\r\n        );\r\n    }\r\n\r\n}",
  "sourcePath": "e:\\DAPP\\airbnb-infura-youtube\\contracts\\Airbnb.sol",
  "compiler": {
    "name": "solc",
    "version": "0.8.16+commit.07a7930e.Emscripten.clang"
  },
  "schemaVersion": "3.4.16",
  "updatedAt": "2024-01-17T17:37:21.840Z",
  "networkType": "ethereum",
  "devdoc": {
    "kind": "dev",
    "methods": {},
    "version": 1
  },
  "userdoc": {
    "kind": "user",
    "methods": {},
    "version": 1
  }
}